:100000000C9462000C948A000C948A000C948A0070
:100010000C948A000C948A000C948A000C948A0038
:100020000C948A000C948A000C94FF020C948A00B1
:100030000C948A000C9479030C948A000C948A0026
:100040000C945D020C948A000C94CD020C94A702CF
:100050000C948A000C948A000C948A000C948A00F8
:100060000C948A000C948A000000000025002800EF
:100070002B0000000000240027002A0000000000E0
:1000800023002600290004040404040404040202DA
:100090000202020203030303030301020408102007
:1000A0004080010204081020010204081020000012
:1000B0000008000201000003040700000000000027
:1000C0000000D40511241FBECFEFD8E0DEBFCDBFA6
:1000D00011E0A0E0B1E0E0E6FCE002C005900D9286
:1000E000A232B107D9F722E0A2E2B1E001C01D922D
:1000F000AA30B207E1F710E0C2E6D0E004C02197D1
:10010000FE010E942306C136D107C9F70E94900361
:100110000C942E060C940000EBEBF0E08491E7EADF
:10012000F0E09491E3E9F0E0E491EE23B9F1882363
:1001300039F1833091F038F48130A9F0823001F543
:1001400084B58F7D12C0873091F08830A1F0843063
:10015000B9F4809180008F7D03C0809180008F77FB
:10016000809380000DC084B58F7784BD09C08091D5
:10017000B0008F7703C08091B0008F7D8093B00076
:10018000F0E0EE0FFF1FE458FF4FA591B491EC9102
:10019000E92381E090E021F480E0089580E090E0A0
:1001A00008953FB7F8948091690190916A01A091F8
:1001B0006B01B0916C0126B5A89B05C02F3F19F0CB
:1001C0000196A11DB11D3FBFBA2FA92F982F8827D7
:1001D000820F911DA11DB11DBC01CD0142E0660F32
:1001E000771F881F991F4A95D1F70895CF92DF9204
:1001F000EF92FF920F931F93CF93DF936C017A01DD
:100200008B01C0E0D0E0CE15DF0581F0D8016D9103
:100210008D01D601ED91FC910190F081E02DC60198
:100220000995892B11F02196EECF7E01C701DF9150
:10023000CF911F910F91FF90EF90DF90CF90089595
:10024000089580E090E00895FC01538D448D252FA2
:1002500030E0842F90E0821B930B541710F0CF9660
:10026000089501970895FC01918D828D981761F092
:10027000828DDF01A80FB11D5D968C91928D9F5FDD
:100280009F73928F90E008958FEF9FEF0895FC0188
:10029000918D828D981731F0828DE80FF11D858D3B
:1002A00090E008958FEF9FEF0895FC01918D228DCE
:1002B000892F90E0805C9F4F821B91098F73992753
:1002C00008958DE691E00E94550121E0892B09F403
:1002D00020E0822F0895FC01848DDF01A80FB11D5D
:1002E000A35ABF4F2C91848D90E001968F7399276C
:1002F000848FA689B7892C93A089B1898C9183704A
:1003000080648C93938D848D981306C00288F38942
:10031000E02D80818F7D80830895EF92FF920F936F
:100320001F93CF93DF93EC0181E0888F9B8D8C8DA1
:10033000981305C0E889F989808185FD26C0F62ECD
:100340000B8D10E00F5F1F4F0F731127E02E8C8D68
:10035000E8120CC00FB607FCFACFE889F989808152
:1003600085FFF5CFCE010E946B01F1CF8B8DFE0191
:10037000E80FF11DE35AFF4FF0829FB7F8940B8FFF
:10038000EA89FB89808180620AC09FB7F894EE8970
:10039000FF896083E889F989808183708064808324
:1003A0009FBF81E090E0DF91CF911F910F91FF906F
:1003B000EF900895CF93DF93EC01888D8823C9F0E7
:1003C000EA89FB89808185FD05C0A889B9898C915E
:1003D00086FD0FC00FB607FCF5CF808185FFF2CFF9
:1003E000A889B9898C9185FFEDCFCE010E946B0160
:1003F000E7CFDF91CF91089580E090E0892B29F03D
:100400000E94610181110C9400000895009769F029
:10041000FC0101900020E9F73197AF01481B590B0F
:10042000BC018DE691E00C94F60080E090E0089528
:100430008F929F92AF92BF920F931F93CF93DF93B0
:10044000CDB7DEB7A1970FB6F894DEBF0FBECDBF14
:1004500019A2423008F44AE08E010F5D1F4F842E2E
:10046000912CA12CB12CA50194010E940106E62F2C
:10047000B901CA0101501109EA3014F4E05D01C06C
:10048000E95CD801EC93232B242B252B61F7C801C1
:100490000E940602A1960FB6F894DEBF0FBECDBF34
:1004A000DF91CF911F910F91BF90AF909F908F9050
:1004B00008950C9406020E9429061F920F920FB60F
:1004C0000F9211242F933F938F939F93AF93BF93DA
:1004D0008091650190916601A0916701B0916801DA
:1004E0003091640123E0230F2D3720F40196A11DE4
:1004F000B11D05C026E8230F0296A11DB11D209352
:1005000064018093650190936601A0936701B093A5
:1005100068018091690190916A01A0916B01B0918D
:100520006C010196A11DB11D8093690190936A0130
:10053000A0936B01B0936C01BF91AF919F918F918C
:100540003F912F910F900FBE0F901F9018951F9203
:100550000F920FB60F9211242F933F934F935F93F7
:100560006F937F938F939F93AF93BF93EF93FF937B
:100570008DE691E00E946B01FF91EF91BF91AF91E9
:100580009F918F917F916F915F914F913F912F91AB
:100590000F900FBE0F901F9018951F920F920FB6DD
:1005A0000F9211242F938F939F93EF93FF93E091DA
:1005B0007D01F0917E018081E0918301F0918401C1
:1005C00082FD12C09081809186018F5F8F73209190
:1005D0008701821751F0E0918601F0E0E359FE4F68
:1005E000958F8093860101C08081FF91EF919F914B
:1005F0008F912F910F900FBE0F901F9018951F9203
:100600000F920FB60F9211240F931F932F933F93C6
:100610004F935F936F937F938F939F93AF93BF930A
:10062000EF93FF934091860050918700B09B04C0E8
:1006300041150FEF5007F0F18091260190912701AD
:10064000A0E0B0E0DC019927882760E070E0842B0F
:10065000952BA62BB72B409122015091230160913D
:100660002401709125018C019D01041B150B260BA3
:10067000370BB901A8018093220190932301A09325
:100680002401B093250180915B018F5F8C3008F0CD
:1006900080E090915A018917C9F014E0819FF00120
:1006A0001124E65DFE4F4083518362837383809300
:1006B0005B010CC081E086BB8091260190912701EF
:1006C00001969093270180932601B6CFFF91EF9179
:1006D000BF91AF919F918F917F916F915F914F915A
:1006E0003F912F911F910F910F900FBE0F901F9070
:1006F00018951F920F920FB60F9211248F939F930C
:100700008091260190912701019690932701809373
:1007100026019F918F910F900FBE0F901F901895FB
:10072000789484B5826084BD84B5816084BD85B5CC
:10073000826085BD85B5816085BD80916E008160D8
:1007400080936E001092810080918100826080937E
:100750008100809181008160809381008091800080
:100760008160809380008091B10084608093B100AB
:100770008091B00081608093B00080917A008460A5
:1007800080937A0080917A00826080937A008091D1
:100790007A00816080937A0080917A0080688093EB
:1007A0007A001092C1008BE490E0909363018093F3
:1007B000620180E590E090936101809360019093E5
:1007C0005F0180935E0182E390E090935D018093EE
:1007D0005C01E0917D01F0917E0182E08083E091F7
:1007E0007901F0917A011082E0917B01F0917C0116
:1007F0008FEC808310928501E0918101F09182015C
:1008000086E08083E0917F01F091800180818061AA
:100810008083E0917F01F0918001808188608083F6
:10082000E0917F01F0918001808180688083E09178
:100830007F01F091800180818F7D8083E7EAF0E085
:100840002491E3E9F0E084918823C1F090E0880FDF
:10085000991FFC01EE58FF4FC591D491FC01E85956
:10086000FF4FA591B4919FB7F8948881E22FE0954E
:100870008E2388838C91E823EC939FBF8091800026
:10088000809181001092810010928000109285006A
:100890001092840081E286BB80936F001092270142
:1008A000109226011092220110922301109224012D
:1008B0001092250110925B0110925A0181EC8093F5
:1008C0008100C7EED3E001E010E00E948C000197A8
:1008D00009F03CC14091280150912901209100006C
:1008E00080916201909163014130510531F420FD06
:1008F00002C0029607C0019705C020FD02C0029702
:1009000001C001969093630180936201809162011E
:10091000909163018F30910528F410932901009381
:10092000280106C0C39720F01092290110922801D7
:1009300080910000909101000196909301008093B6
:10094000000082E191E00E94590280916201909141
:1009500063018A30910518F485E191E005C0843681
:10096000910520F486E191E00E94590260916201B4
:100970007091630180E090E04AE00E94180280914B
:100980006001909161018536910560F4209100002D
:1009900020FD02C0039601C00197909361018093EE
:1009A000600111C0109201001092000010926101CC
:1009B0001092600180910000909101000197909346
:1009C0000100809300008091000090910100019649
:1009D000909301008093000088E191E00E94590209
:1009E00080916001909161018A30910518F485E150
:1009F00091E005C08436910520F486E191E00E94E3
:100A00005902609160017091610180E090E04AE0DC
:100A10000E94180280915E0190915F0188329105D9
:100A200060F02091000020FD02C0029701C00196F5
:100A300090935F0180935E0111C0109201001092AB
:100A4000000010925F0110925E0180910000909171
:100A500001000197909301008093000080910000B5
:100A600090910100019690930100809300008AE12B
:100A700091E00E94590280915E0190915F018A305D
:100A8000910518F485E191E005C08436910520F4C4
:100A900086E191E00E94590260915E0170915F01D0
:100AA00080E090E04AE00E94180280915B01909102
:100AB0005A01891708F4845F891B11F190915B0139
:100AC00080915A01981799F08F5F8C3008F080E080
:100AD00024E0829FF0011124E65DFE4F40815181A8
:100AE0006281738180935A01342F252F02C03FEF1A
:100AF0002FEF832F922F90935D0180935C0104C0B0
:100B0000D0935D01C0935C018CE191E00E94590299
:100B100080915C0190915D018A30910518F485E126
:100B200091E005C08436910520F486E191E00E94B1
:100B3000590260915C0170915D0180E090E04AE0B3
:100B40000E9418028EE191E00E9406020E948C0031
:100B5000019739F50E94D1004B015C0184E6C82E53
:100B6000D12CE12CF12C0E94D100DC01CB018819A1
:100B70009909AA09BB09883E9340A105B10598F3DC
:100B800081E0C81AD108E108F10898EE890E93E0D7
:100B9000991EA11CB11CC114D104E104F10419F780
:100BA000D5CF0E94FC0191CEEDE6F1E013821282D6
:100BB00088EE93E0A0E0B0E084839583A683B783BA
:100BC00084E091E09183808385EC90E09587848731
:100BD00084EC90E09787868780EC90E0918B808B07
:100BE00081EC90E0938B828B82EC90E0958B848BF0
:100BF00086EC90E0978B868B118E128E138E148E5E
:100C00000895A1E21A2EAA1BBB1BFD010DC0AA1F4D
:100C1000BB1FEE1FFF1FA217B307E407F50720F065
:100C2000A21BB30BE40BF50B661F771F881F991FE0
:100C30001A9469F760957095809590959B01AC0129
:100C4000BD01CF010895EE0FFF1F0590F491E02D37
:100C5000099481E090E0F8940C942E06F894FFCF6C
:100C6000000000008D01F6002401DA015501330176
:100C700047015654003030005300440050000D0A24
:020C8000000072
:00000001FF
