:1000000091C50000C0C50000BEC50000BCC5000011
:10001000BAC50000B8C50000B6C50000B4C50000F0
:10002000B2C50000B0C50000AEC50000ACC5000000
:10003000AAC50000A8C50000A6C50000A4C5000010
:10004000A2C50000A0C500009EC500009CC5000020
:100050009AC5000098C5000096C500000C940D33A9
:1000600092C500000C94DA360C94B1368CC50000B1
:100070008AC5000088C5000086C5000084C5000050
:1000800082C5000080C500007EC500007CC5000060
:100090000C9488360C945F3676C5000074C5000059
:1000A00072C5000070C500006EC500006CC5000080
:1000B0006AC5000068C5000066C5000064C5000090
:1000C00062C5000060C500005EC500000C943636B5
:1000D0000C940D3658C5000056C5000054C50000EC
:1000E00052C50000742F772F662F6A2F702FAE2F06
:1000F0007B2F7F2F852F892F8D2F932F972F9B2F2E
:10010000AE2FA12FA52FA92F2E89298F2B02E20018
:10011000E401E510E601E710E870F200EA00EB20E8
:10012000EC3CEDC8E938F1011B1A1A022461255C88
:10013000183619011F88FF051F80FF051F90FF0556
:100140001FD4FF05170536092838FF28283C020070
:100150000300040005EF060007000801093F010045
:10016000B903FF8357FFFAB30400000606B6012562
:10017000B00168CC0105B10600151C1C83AAC0069D
:100180005050013C1E08B4070240002A2A0D783A5C
:1001900001553601C0350100440200021100FF96EE
:1001A0002900FF32150030009A00100011002000D5
:1001B000100028341200020013004610FF0028002F
:1001C00012001200FF0028001000203413004630F7
:1001D000FF00460030000000310002043200070337
:1001E000330004033400040035000104360007071F
:1001F0003700050338001006390010060100000121
:100200000200000303003010080008080A0008007C
:10021000600000276100010090003E019200000193
:1002200093000001A0000030A300100007000100AF
:1002300007002100070023000700330007003301F7
:1002400000000100FF003200010000010200000771
:100250000300301004000000080002020900000042
:100260000A0000000C0000000D0000000F0000005C
:100270001000000011000700120000001300000031
:10028000FF00C8001000901611002702FF00320086
:1002900012001A00FF0032001300001829002A0083
:1002A000FF0032003000000031000000320000008A
:1002B0003500060236000808370007003800010242
:1002C000390000003C0000003D000000200000005C
:1002D00021000000500000005100EF00520000001B
:1002E00053003F01600000A7610003006A000000A6
:1002F0009000100092000000930003009500001190
:100300009700000098000000070033016D617463DE
:1003100068657320746865207475746F7269616CA8
:100320002E00416C736F206966207573696E6720BB
:1003300074686520627265616B6F75742C20646FE0
:1003400075626C652D636865636B207468617420E9
:10035000616C6C20776972696E67004966207573FD
:10036000696E672074686520627265616B6F757471
:1003700020626F6172642C2069742073686F756CE1
:1003800064204E4F542062652023646566696E6563
:1003900064210073686F756C6420617070656172B0
:1003A00020696E20746865206C69627261727920C0
:1003B0006865616465722028456C65676F6F5F547E
:1003C00046542E68292E00202023646566696E65D8
:1003D000205553455F456C65676F6F5F53484945CE
:1003E0004C445F50494E4F5554004966207573691F
:1003F0006E672074686520456C65676F6F20322ECC
:100400003822205446542041726475696E6F2073FF
:100410006869656C642C20746865206C696E653A47
:1004200000556E6B6E6F776E204C4344206472698A
:1004300076657220636869703A2000466F756E6455
:1004400020307839333238204C4344206472697646
:10045000657200466F756E64203078393334312010
:100460004C43442064726976657200466F756E6411
:100470002048583833353744204C4344206472694F
:1004800076657200466F756E6420494C4939333485
:1004900031204C43442064726976657200466F7562
:1004A0006E642048583833343747204C4344206426
:1004B000726976657200466F756E64204C474450D1
:1004C00034353335204C43442064726976657200BC
:1004D000466F756E6420494C4939333238204C439D
:1004E000442064726976657200466F756E642049B7
:1004F0004C4939333235204C434420647269766567
:10050000720000000000003E5B4F5B3E3E6B4F6B95
:100510003E1C3E7C3E1C183C7E3C181C577D571CE4
:100520001C5E7F5E1C00183C1800FFE7C3E7FF005D
:1005300018241800FFE7DBE7FF30483A060E2629AB
:10054000792926407F050507407F05253F5A3CE76E
:100550003C5A7F3E1C1C08081C1C3E7F14227F2234
:10056000145F5F005F5F06097F017F006689956AFF
:10057000606060606094A2FFA29408047E0408108A
:10058000207E201008082A1C08081C2A08081E10B3
:100590001010100C1E0C1E0C30383E3830060E3E6B
:1005A0000E06000000000000005F000000070007CA
:1005B00000147F147F14242A7F2A122313086462F4
:1005C00036495620500008070300001C2241000055
:1005D00041221C002A1C7F1C2A08083E08080080B3
:1005E000703000080808080800006060002010084B
:1005F00004023E5149453E00427F4000724949494C
:10060000462141494D331814127F1027454545397D
:100610003C4A494931412111090736494949364681
:100620004949291E00001400000040340000000861
:100630001422411414141414004122140802015904
:1006400009063E415D594E7C1211127C7F49494991
:10065000363E414141227F4141413E7F4949494126
:100660007F090909013E414151737F0808087F0055
:10067000417F41002040413F017F081422417F40DB
:100680004040407F021C027F7F0408107F3E4141B2
:10069000413E7F090909063E4151215E7F09192922
:1006A00046264949493203017F01033F4040403F0C
:1006B0001F2040201F3F4038403F6314081463034D
:1006C000047804036159494D43007F4141410204CC
:1006D000081020004141417F0402010204404040D3
:1006E0004040000307080020545478407F284444C9
:1006F000383844444428384444287F3854545418E3
:1007000000087E090218A4A49C787F0804047800DD
:10071000447D40002040403D007F102844000041BF
:100720007F40007C047804787C08040478384444D2
:100730004438FC1824241818242418FC7C080404C9
:1007400008485454542404043F44243C4040207C32
:100750001C2040201C3C4030403C44281028444C85
:100760009090907C4464544C440008364100000052
:10077000770000004136080002010204023C2623F3
:10078000263C1EA1A161123A4040207A38545455AB
:100790005921555579412254547842215554784075
:1007A00020545579400C1E527212395555555939FD
:1007B0005454545939555454580000457C41000252
:1007C000457D420001457C407D1211127DF02825B7
:1007D00028F07C545545002054547C547C0A097FF1
:1007E0004932494949323A4444443A324A48483005
:1007F0003A4141217A3A42402078009DA0A07D3DB7
:100800004242423D3D4040403D3C24FF2424487E3E
:100810004943662B2FFC2F2BFF0929F620C0887E29
:10082000090320545479410000447D413048484A2E
:1008300032384040227A007A0A0A727D0D19317DE1
:100840002629292F28262929292630484D402038B5
:100850000808080808080808382F10C8ACBA2F1074
:100860002834FA00007B000008142A142222142ADB
:1008700014085500550055AA55AA55AAFF55FF550D
:10088000FF000000FF00101010FF00141414FF0000
:100890001010FF00FF1010F010F0141414FC0014DE
:1008A00014F700FF0000FF00FF1414F404FC1414FC
:1008B00017101F10101F101F1414141F00101010F9
:1008C000F0000000001F101010101F10101010F08A
:1008D00010000000FF101010101010101010FF106A
:1008E000000000FF140000FF00FF00001F101700B1
:1008F00000FC04F414141710171414F404F400008A
:10090000FF00F714141414141414F700F71414143B
:10091000171410101F101F141414F4141010F010DA
:10092000F000001F101F0000001F14000000FC1446
:100930000000F010F01010FF10FF141414FF14103A
:1009400010101F00000000F010FFFFFFFFFFF0F08D
:10095000F0F0F0FFFFFF0000000000FFFF0F0F0F9F
:100960000F0F3844443844FC4A4A4A347E02020697
:1009700006027E027E0263554941633844443C04CA
:10098000407E201E2006027E020299A5E7A5991C42
:100990002A492A1C4C7201724C304A4D4D30304865
:1009A000784830BC625A463D3E494949007E0101C3
:1009B000017E2A2A2A2A2A44445F444440514A4458
:1009C0004040444A51400000FF0103E080FF000026
:1009D00008086B6B083612362436060F090F06001E
:1009E0000018180000001010003040FF0101001F27
:1009F00001011E00191D1712003C3C3C3C00000088
:100A0000000000002100240027002A002D003000F3
:100A1000330001010000040107010A010000200069
:100A20002300260029002C002F00320000010000C6
:100A300003010601090100000A0B02090C0D0E0852
:100A40000703040100000000000000000000000097
:100A50000000000000000000000000000000000096
:100A60000000121110000000000000000000000053
:100A70000000000000000000000000000102102043
:100A800020080810204010204080020102010804C4
:100A90000201010204081020408080402010080458
:100AA00002018004020180402010080402010804B1
:100AB00002010102040810204080010204081020F5
:100AC000408000002200250028002B002E0031006D
:100AD000340002010000050108010B0105050505B0
:100AE000070508080808020202020A0A08080404A6
:100AF00004040101010101010101030303030303D4
:100B00000303040707070C0C0C0C0C0C0C0C020262
:100B1000020206060606060606060B0B0B0B0B0B5F
:100B20000B0BF44D11241FBECFEFD1E2DEBFCDBFC2
:100B300000E00CBF13E0A0E0B2E0E2E9F5EA00E07B
:100B40000BBF02C007900D92A631B107D9F729E07B
:100B5000A6E1B3E001C01D92A93AB207E1F715E0A2
:100B6000C2E9D5E000E006C021970109802FFE010F
:100B70000E94A052C139D10780E00807A9F70E945E
:100B8000693D0C94C7523CCA8F929F92BF92CF92FC
:100B9000DF92EF92FF920F931F93CF93DF93EC01BD
:100BA000CB017A01E98DFA8D50814DA14523408317
:100BB000488D411163C54D89423089F0433021F1A0
:100BC000413081F5AFEEB0E0AD01401B510B4B0160
:100BD000AE19BF0989019D017B01CA0125C04FEEF5
:100BE00050E0BA01621B730B9A01281B390B8FE38B
:100BF00091E0AC01401B510B8C010E191F094801FB
:100C0000D9017A01CB0110C0EFE3F1E0AF01421B43
:100C1000530B4F01861A970AD70198018401C70127
:100C20007A0102C04701DB016B8D7C8DFB01508195
:100C30004EA1452340834091020147784093020131
:100C400040910201409302014EB1477C4EB94EB132
:100C50004EB9A59844B344BB6D8D7E8DFB01508188
:100C60004FA1452340836D8D7E8DFB0150814BA1AB
:100C7000452B408340910201477840930201409107
:100C800002014860409302014EB1477C4EB94EB11B
:100C90004EB9A598A59A6D8D7E8DFB0150814FA10F
:100CA000452340836D8D7E8DFB0150814BA1452BEB
:100CB0004083492F552747FD5A95CB8CDC8CF60194
:100CC00070816AA1672B60836091020167786093ED
:100CD0000201B0900201BA01607C77276B0163E0EA
:100CE000D594C7946A95E1F7BA0163707727E5E078
:100CF000660F771FEA95E1F76C296B296093020173
:100D00006EB1677C6EB9BEB0BA016C7077276B01AB
:100D1000CC0CDD1CCC0CDD1CBA01607277277595FC
:100D20006795759567956C296B296EB9A59864B31D
:100D300040715527440F551F462B44BB6D8D7E8D4A
:100D4000FB0150814FA1452340836D8D7E8DFB01BA
:100D500050814BA1452B408340910201477840933D
:100D6000020160910201AC01407C55276A0143E019
:100D7000D594C7944A95E1F7AC014370552775E0C7
:100D8000440F551F7A95E1F74C29462B40930201F9
:100D90004EB1477C4EB96EB1AC014C7055276A011B
:100DA000CC0CDD1CCC0CDD1CAC01407255275595DC
:100DB0004795559547954C29462B4EB9A59864B350
:100DC00080719927880F991F862B84BB4D8D5E8D6E
:100DD000FA0190818FA1892380834D8D5E8DFA0168
:100DE00090818BA1892B80834B8D5C8DFA01908142
:100DF0008EA18923808380910201877880930201EC
:100E000080910201809302018EB1877C8EB98EB1F0
:100E10008EB9A59884B384BB4D8D5E8DFA01908107
:100E20008FA1892380834D8D5E8DFA0190818BA1E6
:100E3000892B8083809102018778809302018091C1
:100E400002018862809302018EB1877C8EB98EB1D7
:100E50008EB9A598A59A4D8D5E8DFA0190818FA1CE
:100E6000892380834D8D5E8DFA0190818BA1892B22
:100E70008083832F992787FD9A956B8D7C8DFB014D
:100E800050814AA1452B408340910201477840930D
:100E9000020160910201AC01407C55276A0173E0B8
:100EA000D594C7947A95E1F7AC0143705527E5E0F6
:100EB000440F551FEA95E1F74C29462B4093020158
:100EC0004EB1477C4EB96EB1AC014C7055276A01EA
:100ED000CC0CDD1CCC0CDD1CAC01407255275595AB
:100EE0004795559547954C29462B4EB9A59844B33F
:100EF00080719927880F991F842B84BB4D8D5E8D3F
:100F0000FA0190818FA1892380834D8D5E8DFA0136
:100F100090818BA1892B80838091020187788093B7
:100F2000020140910201C901807C9927BC01F3E0D4
:100F300075956795FA95E1F7C9018370992755E092
:100F4000880F991F5A95E1F7862B842B8093020115
:100F50008EB1877C8EB94EB1C9018C709927BC01C6
:100F6000660F771F660F771FC901807299279595C5
:100F7000879595958795862B842B8EB9A59884B3F4
:100F800020713327220F331F282B24BB2D8D3E8D3C
:100F9000F90190818FA1892380832D8D3E8DF901E8
:100FA00090818BA1892B80832B8D3C8DF9019081C1
:100FB0008EA189238083809102018778809302012A
:100FC00080910201809302018EB1877C8EB98EB12F
:100FD0008EB9A59884B384BB2D8D3E8DF901908187
:100FE0008FA1892380832D8D3E8DF90190818BA166
:100FF000892B808380910201877880930201809100
:1010000002018864809302018EB1877C8EB98EB113
:101010008EB9A598A59A2D8D3E8DF90190818FA14D
:10102000892380832D8D3E8DF90190818BA1892BA1
:1010300080838F2D992787FD9A954B8D5C8DFA01C2
:1010400030812AA1232B208320910201277820932D
:101050000201409102019C01207C3327B90133E059
:10106000759567953A95E1F79C012370332755E014
:10107000220F331F5A95E1F7262B242B20930201D0
:101080002EB1277C2EB94EB19C012C703327B901AB
:10109000660F771F660F771F9C01207233273595E7
:1010A000279535952795262B242B2EB9A59824B363
:1010B00080719927880F991F822B84BB2D8D3E8DBF
:1010C000F90190818FA1892380832D8D3E8DF901B7
:1010D00090818BA1892B80838091020187788093F6
:1010E000020120910201C701807C9927AC0163E0D5
:1010F000559547956A95E1F7C7018370992775E083
:10110000880F991F7A95E1F7842B822B8093020137
:101110008EB1877C8EB92EB1C7018C709927AC0136
:10112000440F551F440F551FC7018072992795958D
:10113000879595958795842B822B8EB9A59844B376
:10114000970120713327220F331F242B24BB2D8DB1
:101150003E8DF90190818FA1892380832D8D3E8D55
:10116000F90190818BA1892B80832B8D3C8DF90116
:1011700090818EA18923808380910201877880935A
:10118000020180910201809302018EB1877C8EB9A9
:101190008EB18EB9A59884B384BB2D8D3E8DF90197
:1011A00090818FA1892380832D8D3E8DF9019081BF
:1011B0008BA1892B80838091020187788093020123
:1011C000809102018866809302018EB1877C8EB97E
:1011D0008EB18EB9A598A59A2D8D3E8DF90190817D
:1011E0008FA1892380832D8D3E8DF90190818BA164
:1011F000892B8083812F992787FD9A954B8D5C8D54
:10120000FA0130812AA1232B208320910201277823
:1012100020930201409102019C01207C3327B901F7
:1012200023E0759567952A95E1F79C012370332794
:1012300055E0220F331F5A95E1F7262B242B2093DC
:1012400002012EB1277C2EB94EB19C012C703327A0
:10125000B901660F771F660F771F9C012072332735
:101260003595279535952795262B242B2EB9A598AE
:1012700024B380719927880F991F822B84BB2D8DF1
:101280003E8DF90190818FA1892380832D8D3E8D24
:10129000F90190818BA1892B80838091020187784D
:1012A0008093020120910201C801807C9927AC0142
:1012B00063E0559547956A95E1F7C80183709927D2
:1012C00075E0880F991F7A95E1F7842B822B809324
:1012D00002018EB1877C8EB92EB1C8018C7099271E
:1012E000AC01440F551F440F551FC8018072992748
:1012F0009595879595958795842B822B8EB9A59882
:1013000024B300711127000F111F022B04BB2D8D78
:101310003E8DF90190818FA1892380832D8D3E8D93
:10132000F90190818BA1892B80832B8D3C8DF90154
:1013300090818EA189238083809102018778809398
:10134000020180910201809302018EB1877C8EB9E7
:101350008EB18EB9A59884B384BB2D8D3E8DF901D5
:1013600090818FA1892380832D8D3E8DF9019081FD
:101370008BA1892B80838091020187788093020161
:1013800080910201809302018EB1877C8EB9739A9D
:10139000A59884B384BB2D8D3E8DF90190818FA1DA
:1013A000892380832D8D3E8DF90190818BA1892B1E
:1013B00080838B2F992787FD9A954B8D5C8DFA0141
:1013C00030812AA1232B20832091020127782093AA
:1013D0000201409102019C01207C3327B90123E0E6
:1013E000759567952A95E1F79C012370332755E0A1
:1013F000220F331F5A95E1F7262B242B209302014D
:101400002EB1277C2EB94EB19C012C703327B90127
:10141000660F771F660F771F9C0120723327359563
:10142000279535952795262B242B2EB9A59824B3DF
:1014300080719927880F991F822B84BB2D8D3E8D3B
:10144000F90190818FA1892380832D8D3E8DF90133
:1014500090818BA1892B8083809102018778809372
:10146000020120910201CD01807C9927AC0103E0AB
:10147000559547950A95E1F7CD018370992735E099
:10148000880F991F3A95E1F7842B822B80930201F4
:101490008EB1877C8EB92EB1CD018C709927AC01AD
:1014A000440F551F440F551FCD0180729927959504
:1014B000879595958795842B822B8EB9A59884B3B3
:1014C000A071BB27AA0FBB1FA82BA4BBAD8DBE8DDF
:1014D0009C918FA189238C93AD8DBE8D9C918BA106
:1014E000892B8C93AB8DBC8D9C918EA189238C9381
:1014F000809102018778809302018091020180939C
:1015000002018EB1877C8EB98EB18EB9A59884B355
:1015100084BBAD8DBE8D9C918FA189238C93AD8DA5
:10152000BE8D9C918BA1892B8C9380910201877831
:1015300080930201809102018062809302018EB14A
:10154000877C8EB9739AA59884B384BBAD8DBE8D0C
:101550009C918FA189238C93AD8DBE8D9C918BA185
:10156000892B8C93892D992787FD9A95AB8DBC8DFE
:101570003C912AA1232B2C932091020127782093C0
:101580000201409102019C01207C3327B901A3E0B4
:1015900075956795AA95E1F79C0123703327B5E00F
:1015A000220F331FBA95E1F7262B242B209302013B
:1015B0002EB1277C2EB94EB19C012C703327B90176
:1015C000660F771F660F771F9C01207233273595B2
:1015D000279535952795262B242B2EB9A59824B32E
:1015E00080719927880F991F822B84BBAD8DBE8D8A
:1015F0009C918FA189238C93AD8DBE8D9C918BA1E5
:10160000892B8C938091020187788093020120912D
:101610000201C401807C9927AC0163E05595479590
:101620006A95E1F7C4018370992775E0880F991FC7
:101630007A95E1F7842B822B809302018EB1877C0F
:101640008EB92EB1C4018C709927AC01440F551F7F
:10165000440F551FC40180729927959587959595DC
:101660008795842B822B8EB9A59884B3F401E07101
:10167000FF27EE0FFF1FE82BE4BB80C3413009F0CA
:101680008AC3492F552747FD5A95EB8DFC8D7081F4
:101690006EA1672360836091020167786093020105
:1016A000609102016064609302016EB1677C6EB963
:1016B0006EB16EB9A59864B364BBED8DFE8D70817B
:1016C0006FA167236083ED8DFE8D70816BA1672B09
:1016D0006083EB8DFC8D70816AA1672B60836091C4
:1016E0000201677860930201E0910201BA01607C17
:1016F0007727DB0173E0B595A7957A95E1F7BA01F5
:1017000063707727F5E0660F771FFA95E1F76A2B8C
:101710006E2B609302016EB1677C6EB9EEB1BA01B7
:101720006C707727DB01AA0FBB1FAA0FBB1FBA0182
:101730006072772775956795759567956A2B6E2BFF
:101740006EB9A59864B340715527440F551F462BB9
:1017500044BBED8DFE8D50814FA145234083ED8D1F
:10176000FE8D50814BA1452B4083EB8DFC8D50812C
:101770004EA14523408340910201477840930201E6
:10178000409102014066409302014EB1477C4EB940
:101790004EB14EB9A59844B344BBED8DFE8D50813A
:1017A0004FA145234083ED8DFE8D50814BA1452BEC
:1017B0004083EB8DFC8D50814AA1452B40834091A5
:1017C000020147784093020160910201AC01407C24
:1017D0005527FA01B3E0F595E795BA95E1F7AC0125
:1017E0004370552775E0440F551F7A95E1F74E2B4E
:1017F000462B409302014EB1477C4EB96EB1AC010D
:101800004C705527FA01EE0FFF1FEE0FFF1FAC01C2
:101810004072552755954795559547954E2B462B24
:101820004EB9A59864B380719927880F991F862BAC
:1018300084BBED8DFE8D90818FA189238083ED8DFA
:10184000FE8D90818BA1892B80838F2D992787FD19
:101850009A95EB8DFC8D50814EA14523408340919C
:101860000201477840930201409102014064409395
:1018700002014EB1477C4EB9749AA59844B344BB5B
:10188000ED8DFE8D50814FA145234083ED8DFE8D62
:1018900050814BA1452B4083EB8DFC8D50814AA19B
:1018A000452B4083409102014778409302016091AB
:1018B0000201AC01407C5527FA0173E0F595E795EC
:1018C0007A95E1F7AC0143705527F5E0440F551FB9
:1018D000FA95E1F74E2B462B409302014EB1477C1F
:1018E0004EB96EB1AC014C705527FA01EE0FFF1FD7
:1018F000EE0FFF1FAC014072552755954795559542
:1019000047954E2B462B4EB9A59844B38071992725
:10191000880F991F842B84BBED8DFE8D90818FA144
:1019200089238083ED8DFE8D90818BA1892B80830F
:10193000EB8DFC8D90818EA18923808380910201A3
:101940008778809302018091020180668093020172
:101950008EB1877C8EB9749AA59884B384BBED8DC3
:10196000FE8D90818FA189238083ED8DFE8D9081E6
:101970008BA1892B8083EB8DFC8D90818AA1892B93
:101980008083809102018778809302014091020157
:10199000C701807C9927BC01E3E075956795EA95BE
:1019A000E1F7C70183709927F5E0880F991FFA9531
:1019B000E1F7862B842B809302018EB1877C8EB950
:1019C0004EB1C7018C709927BC01660F771F660F57
:1019D000771FC7018072992795958795959587956B
:1019E000862B842B8EB9A59844B3F0E1EF22FF2417
:1019F000EE0CFF1CE42AE4BAED8DFE8D90818FA1E0
:101A000089238083ED8DFE8D90818BA1892B80832E
:101A1000832F992787FD9A95EB8DFC8D50814EA1E0
:101A20004523408340910201477840930201409151
:101A30000201409302014EB1477C4EB9749AA598B9
:101A400044B344BBED8DFE8D50814FA145234083AF
:101A5000ED8DFE8D50814BA1452B4083EB8DFC8D90
:101A600050814AA1452B4083409102014778409321
:101A7000020160910201AC01407C5527FA0143E06C
:101A8000F595E7954A95E1F7AC014370552775E068
:101A9000440F551F7A95E1F74E2B462B40930201D8
:101AA0004EB1477C4EB96EB1AC014C705527FA016E
:101AB000EE0FFF1FEE0FFF1FAC014072552755952B
:101AC0004795559547954E2B462B4EB9A59844B34F
:101AD00080719927880F991F842B84BBED8DFE8D13
:101AE00090818FA189238083ED8DFE8D90818BA1C4
:101AF000892B8083EB8DFC8D90818EA1892380833F
:101B000080910201877880930201809102018062B6
:101B1000809302018EB1877C8EB9749AA59884B3A4
:101B200084BBED8DFE8D90818FA189238083ED8D07
:101B3000FE8D90818BA1892B8083EB8DFC8D908114
:101B40008AA1892B8083809102018778809302018A
:101B500040910201C901807C9927BC01E3E07595A1
:101B60006795EA95E1F7C90183709927F5E0880F39
:101B7000991FFA95E1F7862B842B809302018EB191
:101B8000877C8EB94EB1C9018C709927BC01660F54
:101B9000771F660F771FC9018072992795958795E2
:101BA00095958795862B842B8EB9A59884B3207143
:101BB0003327220F331F282B24BBED8DFE8D908100
:101BC0008FA189238083ED8DFE8D90818BA1892B40
:101BD0008083812F992787FD9A95EB8DFC8D30812D
:101BE0002EA1232320832091020127782093020134
:101BF00020910201209302012EB1277C2EB9759A03
:101C0000A59824B324BBED8DFE8D30812FA1232315
:101C10002083ED8DFE8D30812BA1232B2083EB8D36
:101C2000FC8D30812AA1232B20832091020127786B
:101C300020930201409102019C01207C3327B901CD
:101C400033E0759567953A95E1F79C01237033274A
:101C500055E0220F331F5A95E1F7262B242B2093B2
:101C600002012EB1277C2EB94EB19C012C70332776
:101C7000B901660F771F660F771F9C01207233270B
:101C80003595279535952795262B242B2EB9A59884
:101C900024B380719927880F991F822B84BBED8D07
:101CA000FE8D90818FA189238083ED8DFE8D9081A3
:101CB0008BA1892B8083EB8DFC8D90818EA1892354
:101CC00080838091020187788093020180910201D4
:101CD0008062809302018EB1877C8EB9759AA59837
:101CE00084B384BBED8DFE8D90818FA18923808389
:101CF000ED8DFE8D90818BA1892B8083EB8DFC8DEA
:101D000090818AA1892B80838091020187788093BA
:101D1000020120910201C801807C9927AC01B3E047
:101D200055954795BA95E1F7C8018370992735E035
:101D3000880F991F3A95E1F7842B822B809302013B
:101D40008EB1877C8EB92EB1C8018C709927AC01F9
:101D5000440F551F440F551FC80180729927959550
:101D6000879595958795842B822B8EB9A59824B35A
:101D700000711127000F111F022B04BBED8DFE8D8A
:101D800090818FA189238083ED8DFE8D90818BA121
:101D9000892B80832FC04250423060F5092E000C01
:101DA000AA0BBB0BDC0199278827A901330F660B0F
:101DB000770B9A01AB01282B392B4A2B5B2B6AE25C
:101DC000CE010E943737C701FF0CAA0BBB0BBC0129
:101DD00055274427012E000C220B330BD901C801D3
:101DE000842B952BA62BB72B9C01AD016BE2CE016A
:101DF0000E943737E98DFA8D908189A1892B8083E4
:101E0000DF91CF911F910F91FF90EF90DF90CF90D6
:101E1000BF909F908F9008959091010281E0892753
:101E20008093010208959091020281E089278093B6
:101E3000020208959091000281E0892780930002B8
:101E400008959091030281E0892780930302089509
:101E5000AEE2B3E0ED91FC91119712968D919C91B9
:101E600013971994A8E3B3E0ED91FC9111971296A2
:101E70008D919C9113971994A2E4B3E0ED91FC919C
:101E8000119712968D919C9113971994ACE4B3E03D
:101E9000ED91FC91119712968D919C911397199445
:101EA000A6E5B3E0ED91FC91119712968D919C916E
:101EB00013971994AAE6B3E0ED91FC91119712964D
:101EC0008D919C9113971994A0E6B3E0ED91FC914C
:101ED000119712968D919C9113971994CF93DF933C
:101EE000EC018BEF96E09983888381EB96E09B83EE
:101EF0008A838CE896E09D838C8386ED96E09F83B1
:101F00008E8387E696E0998788878CE293E09B87AB
:101F10008A878FE699E00E94A425882341F161E039
:101F20008FE699E00E94DB2560E070E080EF95E0AD
:101F30000E94D53860E08CE899E00E94DB2560E0E3
:101F40008FE699E00E94DB2560E082E599E00E943F
:101F5000DB2560E085E399E00E94DB2560E088E115
:101F600099E00E94DB2510920502109204028FE690
:101F700099E00E949C25882329F060E08FE699E093
:101F80000E94DB258CE899E00E94A425882351F16A
:101F900061E08CE899E00E94DB2560E070E080EF72
:101FA00095E00E94D53860E08FE699E00E94DB253D
:101FB00060E08CE899E00E94DB2560E082E599E032
:101FC0000E94DB2560E085E399E00E94DB2560E06C
:101FD00088E199E00E94DB2581E090E09093050282
:101FE000809304028CE899E00E949C25882329F0C4
:101FF00060E08CE899E00E94DB2582E599E00E9490
:10200000A425882351F161E082E599E00E94DB2557
:1020100060E070E080EF95E00E94D53860E08FE6E8
:1020200099E00E94DB2560E08CE899E00E94DB25C6
:1020300060E085E399E00E94DB2560E082E599E0BD
:102040000E94DB2560E088E199E00E94DB2582E0C8
:1020500090E0909305028093040282E599E00E944B
:102060009C25882329F060E082E599E00E94DB2529
:1020700085E399E00E94A425882329F061E085E3A7
:1020800099E00E94DB2585E399E00E949C25882346
:1020900029F060E085E399E00E94DB2588E199E082
:1020A0000E94A425882329F061E088E199E00E943C
:1020B000DB2588E199E00E949C25882329F060E0D7
:1020C00088E199E00E94DB2580910402909105024D
:1020D000009709F0DDC182E390E09093FD058093C5
:1020E000FC051092FF051092FE0582E08093040625
:1020F0008FEF9FEF909301068093000610920306E6
:102100001092020666E972E080EF95E00E94FA35CF
:102110001092FD051092FC0589E190E09093FF0577
:102120008093FE0563EA72E080EF95E00E940C3632
:1021300080912A0390912B03009719F480EE97E089
:1021400014C0019781F48DED95E00E9403378091D2
:102150000302882319F080E29DEF07C01092010668
:102160001092000606C080E098EF909301068093DD
:1021700000061092030610920206E881F98102A07F
:10218000F3A1E02D60817181828193810E94EA3008
:102190006AEA72E080EF95E00E94FA358FEF9FEFD8
:1021A0009093010680930006109203061092020697
:1021B0001092FD051092FC0582E390E09093FF05DC
:1021C0008093FE0560EB72E080EF95E00E940C3694
:1021D0008091280390912903009719F480EE97E0ED
:1021E00014C0019781F487EC95E00E940337809139
:1021F0000202882319F080E29DEF07C010920106C9
:102200001092000606C080E098EF9093010680933C
:1022100000061092030610920206EA81FB8102A0DA
:10222000F3A1E02D60817181828193810E94EA3067
:1022300067EB72E080EF95E00E94FA358FEF9FEF39
:1022400090930106809300061092030610920206F6
:102250001092FD051092FC058BE490E09093FF0531
:102260008093FE056EEB72E080EF95E00E940C36E5
:102270008091260390912703009719F480EE97E050
:1022800014C0019781F48CEB95E00E940337809194
:102290000102882319F080E29DEF07C01092010629
:1022A0001092000606C080E098EF9093010680939C
:1022B00000061092030610920206EC81FD8102A036
:1022C000F3A1E02D60817181828193810E94EA30C7
:1022D00067EB72E080EF95E00E94FA358FEF9FEF99
:1022E0009093010680930006109203061092020656
:1022F0001092FD051092FC0584E690E09093FF0596
:102300008093FE0565EC72E080EF95E00E940C364C
:102310008091240390912503009719F480EE97E0B3
:1023200014C0019781F482ED95E00E9403378091FB
:102330000002882319F080E29DEF07C01092010689
:102340001092000606C080E098EF909301068093FB
:1023500000061092030610920206EE81FF8102A091
:10236000F3A1E02D60817181828193810E94EA3026
:102370006CEC72E080EF95E00E94FA358FEF9FEFF2
:1023800090930106809300061092030610920206B5
:102390001092FD051092FC058DE790E09093FF05EB
:1023A0008093FE0562ED72E080EF95E00E940C36AE
:1023B0008091D4039091D503009719F480EE97E0B3
:1023C00007C0019719F480E29DEF02C080E098EF0A
:1023D0009093010680930006109203061092020665
:1023E000E885F98502A0F3A1E02D608171818281E9
:1023F00093810E94EA3069ED72E080EF95E00E94DF
:10240000FA358FEF9FEF90930106809300061092AC
:102410000306109202061092FD051092FC0586E953
:1024200090E09093FF058093FE056EED72E080EFE3
:1024300095E00E940C36809122039091230300972F
:1024400019F480EE97E007C0019719F480E29DEF40
:1024500002C080E098EF90930106809300061092EE
:10246000030610920206EA85FB854081518156954C
:10247000479560E070E02AE080EF95E00E94B23579
:1024800065EE72E080EF95E0DF91CF910C94FA3524
:10249000019709F01CC283E08093040680E098EF66
:1024A0009093010680930006109203061092020694
:1024B0008BE490E09093FD058093FC058AE090E02A
:1024C0009093FF058093FE056DEE72E080EF95E03E
:1024D0000E940C3680EE9FEF9093010680930006D9
:1024E00088E196EC909303068093020688E090E0E2
:1024F0009093FD058093FC0586E290E09093FF05A4
:102500008093FE0562EF72E080EF95E00E940C364A
:102510008091BF03882339F08FEF9FEF90930106DE
:102520008093000604C010920106109200061092DB
:1025300003061092020683E290E09093FD058093DB
:10254000FC0586E290E09093FF058093FE05E8810C
:10255000F98102A0F3A1E02D6081718182819381D4
:102560000E94EA306AEE72E080EF95E00E940C363D
:1025700082E08093040685EA90E09093FD058093C5
:10258000FC058DE290E09093FF058093FE0564EFDB
:1025900072E080EF95E00E940C3683E080930406A1
:1025A00080EE9FEF909301068093000688E196EC01
:1025B000909303068093020688E090E09093FD05D7
:1025C0008093FC058BE490E09093FF058093FE05DB
:1025D00068EF72E080EF95E00E940C368091BE03B8
:1025E000882339F08FEF9FEF9093010680930006C8
:1025F00004C0109201061092000610920306109279
:10260000020683E290E09093FD058093FC058BE445
:1026100090E09093FF058093FE05EA81FB8102A084
:10262000F3A1E02D60817181828193810E94EA3063
:102630006AEE72E080EF95E00E940C3682E08093B3
:10264000040685EA90E09093FD058093FC0582E501
:1026500090E09093FF058093FE0567EB72E080EFBA
:1026600095E00E940C3683E08093040680EE9FEF95
:10267000909301068093000688E196EC9093030600
:102680008093020688E090E09093FD058093FC051E
:1026900080E790E09093FF058093FE056AEF72E07B
:1026A00080EF95E00E940C368091BD03882339F0BD
:1026B0008FEF9FEF909301068093000604C0109265
:1026C000010610920006109203061092020683E2A1
:1026D00090E09093FD058093FC0580E790E0909357
:1026E000FF058093FE05EC81FD8102A0F3A1E02DA2
:1026F00060817181828193810E94EA306AEE72E08A
:1027000080EF95E00E940C3682E08093040685EA13
:1027100090E09093FD058093FC0587E790E090930F
:10272000FF058093FE0567EB72E080EF95E00E9465
:102730000C3683E08093040680EE9FEF90930106B1
:102740008093000688E196EC90930306809302063E
:1027500088E090E09093FD058093FC0585E990E08A
:102760009093FF058093FE056CEF72E080EF95E09B
:102770000E940C368091BC03882339F08FEF9FEFC5
:10278000909301068093000604C0109201061092F7
:102790000006109203061092020683E290E09093E6
:1027A000FD058093FC0585E990E09093FF058093FB
:1027B000FE05EE81FF8102A0F3A1E02D6081718111
:1027C000828193810E94EA306AEE72E080EF95E0A8
:1027D0000E940C3682E08093040685EA90E0909394
:1027E000FD058093FC058CE990E09093FF058093B4
:1027F000FE056CEC72E080EF95E00E940C3683E001
:102800008093040680EE9FEF90930106809300066C
:1028100088E196EC909303068093020688E090E0AE
:102820009093FD058093FC058AEB90E09093FF0563
:102830008093FE056EEF72E080EF95E00E940C360B
:102840008091BB03882339F08FEF9FEF90930106AF
:102850008093000604C010920106109200061092A8
:1028600003061092020683E290E09093FD058093A8
:10287000FC058AEB90E09093FF058093FE05E885C8
:10288000F98502A0F3A1E02D60817181828193819D
:102890000E94EA306AEE72E080EF95E00E940C360A
:1028A00082E08093040685EA90E09093FD05809392
:1028B000FC0581EC90E09093FF058093FE0569EDA7
:1028C00072E080EF95E0DF91CF910C940C3683E0BD
:1028D0008093040680E098EF9093010680930006B1
:1028E000109203061092020687E390E09093FD0594
:1028F0008093FC0585E090E09093FF058093FE05B2
:1029000060E073E080EF95E00E940C368091BF0399
:10291000882311F061E001C060E08BEF98E00E9435
:10292000DB258BEF98E00E949C25882331F0909165
:10293000BF0381E089278093BF038091BE03882372
:1029400011F061E001C060E08EED98E00E94DB25AF
:102950008EED98E00E949C25882331F09091BE0373
:1029600081E089278093BE038091BD03882311F005
:1029700061E001C060E081EC98E00E94DB2581EC21
:1029800098E00E949C25882331F09091BD0381E05E
:1029900089278093BD038091BC03882311F061E0F7
:1029A00001C060E084EA98E00E94DB2584EA98E0B8
:1029B0000E949C25882331F09091BC0381E08927F7
:1029C0008093BC038091BB03882311F061E001C0B8
:1029D00060E087E898E00E94DB2587E898E00E94A5
:1029E0009C25882331F09091BB0381E08927809357
:1029F000BB03DF91CF910895CF93DF93EC01E4EB1C
:102A0000F7E0F983E8838AE697E09B838A8385E48D
:102A100097E09D838C838FE897E09F838E8380E28D
:102A200097E0998788878BEF96E09B878A8781EB71
:102A300096E09D878C878CE896E09F878E8786ED51
:102A400096E0998B888B87E696E09B8B8A8B02A019
:102A5000F3A1E02D20E030E040E45FE3608171818C
:102A6000828193810E94F65020E030E040EA50E4F9
:102A70000E940852AB01BC018BEF96E00E948027B8
:102A8000EA81FB8102A0F3A1E02D60817181828146
:102A900093819B01AC010E94085220E030E040E1AC
:102AA00051E40E940852AB01BC018C859D850E94B7
:102AB0008027EC81FD8102A0F3A1E02D20E030E031
:102AC00040EC5FE360817181828193810E94F650C6
:102AD00020E030E040EC50E40E940852AB01BC0121
:102AE0008E859F850E948027EE81FF8102A0F3A141
:102AF000E02D20E030E040E450E46081718182818B
:102B000093810E94F65020E030E040E051E40E94C2
:102B10000852AB01BC01888999890E948027E88509
:102B2000F98502A0F3A1E02D20E030E040E450E47C
:102B300060817181828193810E94F65020E030E0B3
:102B400040EE50E40E940852AB01BC018A899B8987
:102B5000DF91CF910C9480272F923F924F925F92FA
:102B60006F927F928F929F92AF92BF92CF92DF929D
:102B7000EF92FF920F931F93CF93DF93CDB7DEB702
:102B800028970FB6F894DEBF0FBECDBF5C013B01A6
:102B90004A0138872F83FC82EB82260181E090E096
:102BA0006C01C21AD30AC9019195819591099C01C2
:102BB000220F331F3A832983170133E0230E311C80
:102BC000EE24E394F12C802F81708D8302700E83AC
:102BD000C70101972F813885821793070CF078C0C1
:102BE000D7FC0BC02150310938872F8389819A8106
:102BF00002969A838983C80ED91EC701880F991F30
:102C00000196C80ED91E9D81992359F12F813885CF
:102C1000220F331F2F5F3F4FAB81BC812A0F3B1F19
:102C2000D501ED91FC910484F585E02D8201A4018C
:102C30008F819885481B590BB3016E0D7F1DC5010F
:102C40001995D501ED91FC910484F585E02D910154
:102C5000A4014E195F096F817885660D771DC50146
:102C60001995BE81B11107C09FEFE91AF90AA2E0D8
:102C70002A0E311CADCF2F813885220F331F2F5FD5
:102C80003F4F8B819C81280F391FD501ED91FC911D
:102C90000484F585E02D8201A4018F819885481B6D
:102CA000590BB3016E197F09C5011995D501ED9135
:102CB000FC910484F585E02D9101A4014E195F0972
:102CC000B3018F819885681B790BC5011995CCCF0D
:102CD00028960FB6F894DEBF0FBECDBFDF91CF911F
:102CE0001F910F91FF90EF90DF90CF90BF90AF902A
:102CF0009F908F907F906F905F904F903F902F901C
:102D00000895FC01A089B18982E08C93A485B585E2
:102D10001C92A685B7858FEC8C93108EA489B589FB
:102D200086E08C93A289B3898C9180618C93A2896F
:102D3000B3898C9188608C93A289B3898C918068C7
:102D40008C930288F389E02D80818F7D80830895A4
:102D50006F927F928F929F92AF92BF92CF92DF92AB
:102D6000EF92FF920F931F93CF93DF93FC013B01F0
:102D7000A18DB28D9C9185A189238C93A38DB48D57
:102D80009C9186A189238C93808D823011F18111D1
:102D90001EC0809102018778809302018091020118
:102DA000809302018EB1877C8EB98EB18EB9A598C1
:102DB00084B384BBA58DB68D9C9187A189238C9308
:102DC000A58DB68D9C9183A1892B8C9312C08330E5
:102DD00081F4809102018778809302018091020141
:102DE000809302018EB1877C8EB98EB188638EB9D3
:102DF0000EC08091020187788093020180910201C8
:102E00008064809302018EB1877C8EB9739AA598F5
:102E100084B384BBA58DB68D9C9187A189238C93A7
:102E2000A58DB68D9C9183A1892B8C93A38DB48D98
:102E30009C9182A1892B8C93809102018778809349
:102E40000201A0910201872F90E07C01B0ECEB22FF
:102E5000FF24B3E0F594E794BA95E1F78C01037091
:102E60001127C5E0000F111FCA95E1F7BE2DB02B49
:102E7000AB2BA0930201AEB1A77CAEB91EB16C0121
:102E8000CCE0CC22DD24CC0CDD1CCC0CDD1C7C0188
:102E9000D0E2ED22FF24F594E794F594E794AC2D6D
:102EA000AE291A2B1EB9A59814B380719927880FE3
:102EB000991FF82E812B84BB058D168DE801988112
:102EC00087A189238883058D168DE801988183A1C8
:102ED000892B8883809102018778809302018091F9
:102EE00002018B01007C11276801D3E0D594C794BF
:102EF000DA95E1F78B010370112795E0000F111FA0
:102F00009A95E1F70C29802B809302018EB1877C82
:102F10008EB98EB15B01DCE0AD22BB24AA0CBB1CD8
:102F2000AA0CBB1C6B0190E2C922DD24D594C79486
:102F3000D594C7941A2D1C29812B8EB9A59884B3DA
:102F400060717727660F771F762F682B64BB858D9E
:102F5000968DEC01E88067A16E216883858D968D42
:102F6000EC01E88063A16E29688321503109410991
:102F7000510949015A0136E0B694A7949794879471
:102F80003A95D1F7C401761088C1019708F465C05D
:102F900060E1A58DB68DCC9177A17C237C93A58D26
:102FA000B68DCC9173A17C2B7C93A58DB68DCC91E5
:102FB00077A17C237C93A58DB68DCC9173A17C2BBE
:102FC0007C93A58DB68DCC9177A17C237C93A58D28
:102FD000B68DCC9173A17C2B7C93A58DB68DCC91B5
:102FE00077A17C237C93A58DB68DCC9173A17C2B8E
:102FF0007C93A58DB68DCC9177A17C237C93A58DF8
:10300000B68DCC9173A17C2B7C93A58DB68DCC9184
:1030100077A17C237C93A58DB68DCC9173A17C2B5D
:103020007C93A58DB68DCC9177A17C237C93A58DC7
:10303000B68DCC9173A17C2B7C93A58DB68DCC9154
:1030400077A17C237C93A58DB68DCC9173A17C2B2D
:103050007C93615009F09DCF98CF2F73215008F4D5
:1030600065C1A58DB68D9C9187A189238C93A58D73
:10307000B68D9C9183A1892B8C93A58DB68D9C9147
:1030800087A189238C93A58DB68D9C9183A1892BD3
:103090008C93E4CFC0910201C778C0930201C09124
:1030A0000201CB2BC0930201CEB1C77CCEB9CEB109
:1030B000CA2BCEB9A598C4B3CF29C4BBC58DD68DB4
:1030C000D880E7A0ED20E882C58DD68DD880E3A01A
:1030D000ED28E882C0910201C778C0930201C09137
:1030E0000201C02BC0930201CEB1C77CCEB9CEB1D4
:1030F000C12BCEB9A598C4B3C72BC4BBC58DD68D83
:10310000D880E7A0ED20E882C58DD68DD880E3A0D9
:10311000ED28E882C0910201C778C0930201C091F6
:103120000201CB2BC0930201CEB1C77CCEB9CEB188
:10313000CA2BCEB9A598C4B3CF29C4BBC58DD68D33
:10314000D880E7A0ED20E882C58DD68DD880E3A099
:10315000ED28E882C0910201C778C0930201C091B6
:103160000201C02BC0930201CEB1C77CCEB9CEB153
:10317000C12BCEB9A598C4B3C72BC4BBC58DD68D02
:10318000D880E7A0ED20E882C58DD68DD880E3A059
:10319000ED28E882C0910201C778C0930201C09176
:1031A0000201CB2BC0930201CEB1C77CCEB9CEB108
:1031B000CA2BCEB9A598C4B3CF29C4BBC58DD68DB3
:1031C000D880E7A0ED20E882C58DD68DD880E3A019
:1031D000ED28E882C0910201C778C0930201C09136
:1031E0000201C02BC0930201CEB1C77CCEB9CEB1D3
:1031F000C12BCEB9A598C4B3C72BC4BBC58DD68D82
:10320000D880E7A0ED20E882C58DD68DD880E3A0D8
:10321000ED28E882C0910201C778C0930201C091F5
:103220000201CB2BC0930201CEB1C77CCEB9CEB187
:10323000CA2BCEB9A598C4B3CF29C4BBC58DD68D32
:10324000D880E7A0ED20E882C58DD68DD880E3A098
:10325000ED28E882C0910201C778C0930201C091B5
:103260000201C02BC0930201CEB1C77CCEB9CEB152
:10327000C12BCEB9A598C4B3C72BC4BBC58DD68D01
:10328000D880E7A0ED20E882C58DD68DD880E3A058
:10329000ED28E882615009F0FDCE019710F060E161
:1032A000F9CE2F73215008F441C080910201877834
:1032B00080930201809102018B2B809302018EB1D9
:1032C000877C8EB98EB18A2B8EB9A59884B38F294D
:1032D00084BBC58DD68D988187A189238883C58DB0
:1032E000D68D988183A1892B88838091020187786C
:1032F0008093020180910201802B809302018EB1A4
:10330000877C8EB98EB1812B8EB9A59884B3872B1B
:1033100084BBC58DD68D988187A189238883C58D6F
:10332000D68D988183A1892B8883BCCFA18DB28D46
:103330009C9181A1892B8C93DF91CF911F910F914B
:10334000FF90EF90DF90CF90BF90AF909F908F90C5
:103350007F906F900895EF92FF920F931F93CF93FA
:10336000DF938370809305062091F4053091F50575
:103370004091F6055091F705813059F0833049F0BE
:103380003093F9052093F8055093FB054093FA0517
:1033900008C05093F9054093F8053093FB0520933E
:1033A000FA05E0910906F0910A06908180911506D0
:1033B00089238083809108068111D7C0E09105069A
:1033C000E150E33040F4F0E0EE0FFF1FE75FFD4F08
:1033D0008081918102C080E390E1E0910B06F09141
:1033E0000C063081209116062323208320910201B0
:1033F00027782093020120910201209302012EB12F
:10340000277C2EB92EB12EB9A59824B324BBE09108
:103410000D06F0910E06308120911706232320839C
:10342000E0910D06F0910E06308120911306232BBA
:10343000208320910201277820930201209102012C
:103440002066209302012EB1277C2EB92EB12EB911
:10345000A59824B324BBE0910D06F0910E063081AF
:103460002091170623232083E0910D06F0910E068C
:10347000308120911306232B2083E0910B06F091DD
:103480000C06308120911206232B2083209102010B
:1034900027782093020120910201209302012EB18E
:1034A000277C2EB92EB12EB9A598A59AE0910D06CC
:1034B000F0910E0630812091170623232083E0919E
:1034C0000D06F0910E06308120911306232B2083E8
:1034D000209102012778209302012091020120937C
:1034E00002012EB1277C2EB94EB19C012C703327DE
:1034F000B901660F771F660F771F9C012072332773
:103500003595279535952795262B242B2EB9A598EB
:1035100024B380719927880F991F822B84BBE09177
:103520000D06F0910E069081809117068923808305
:10353000E0910D06F0910E06908180911306892B83
:1035400080830091FA051091FB050150110920912B
:10355000F8053091F9052150310940E050E060E074
:1035600070E080EF95E00E94C405809108068130EC
:1035700009F075C0E0910506E150E33028F4F0E071
:10358000EA5FFD4F808101C080E0E0910B06F09181
:103590000C0620819091160692239083909102014F
:1035A00097789093020190910201906490930201A8
:1035B0009EB1977C9EB9749AA598A59AE0910D0644
:1035C000F0910E0620819091170692239083E0914E
:1035D0000D06F0910E06208190911306922B908398
:1035E000E0910B06F0910C06208190911206922B2F
:1035F00090839091020197789093020120910201AB
:10360000982F907C969596959695922B9093020183
:103610009EB1977C9EB92EB1982F9072892F90E021
:103620009595879595958795822B8EB9A59884B3A6
:1036300084BBE0910D06F0910E06908180911706F3
:1036400089238083E0910D06F0910E069081809190
:103650001306892B808380EF95E00E94BB3B80910D
:103660000806823009F097C080910506813089F004
:1036700060F0823031F0833079F4F8E2EF2EF12CF3
:103680000BC0A8E4EA2EF12C07C0E8E8EE2EF12CDE
:1036900003C078EEE72EF12CE0910B06F0910C06BA
:1036A000908180911606892380838091020187781A
:1036B00080930201809102018064809302018EB1A7
:1036C000877C8EB98EB188618EB9A598A59AE09154
:1036D0000D06F0910E069081809117068923808354
:1036E000E0910D06F0910E06908180911306892BD2
:1036F0008083E0910B06F0910C0690818091120678
:10370000892B808380910201877880930201209128
:103710000201C701807C992753E0969587955A95B9
:10372000E1F7822B809302018EB1877C8EB98EB136
:1037300090E2E922FF24F694E794F694E7948062FD
:10374000E82AEEB8A59884B384BBE0910D06F09109
:103750000E0690818091170689238083E0910D06E3
:10376000F0910E06908180911306892B8083009141
:10377000FA051091FB05015011092091F8053091CF
:10378000F9052150310940E050E060E070E080EF41
:1037900095E00E94C40580910806833009F091C02D
:1037A00080910506813071F050F0823029F083302D
:1037B00059F4C0E6D0E008C0C0E0D0E005C0C0ECDD
:1037C000D0E002C0C0EAD0E0E0910B06F0910C0618
:1037D00090818091160689238083809102018778E9
:1037E00080930201809102018064809302018EB176
:1037F000877C8EB98EB188618EB9A598A59AE09123
:103800000D06F0910E069081809117068923808322
:10381000E0910D06F0910E06908180911306892BA0
:103820008083E0910B06F0910C0690818091120646
:10383000892B8083809102018778809302012091F7
:103840000201CE01807C992733E0969587953A95C1
:10385000E1F7822B809302018EB1877C8EB98EB105
:10386000C072DD27D695C795D695C795C82BCEB91A
:10387000A59884B384BBE0910D06F0910E0690816B
:103880008091170689238083E0910D06F0910E0642
:10389000908180911306892B80830091FA05109105
:1038A000FB05015011092091F8053091F9052150CF
:1038B000310940E050E060E070E080EF95E00E9468
:1038C000C405DF91CF911F910F91FF90EF90089564
:1038D000EF92FF920F931F93CF93DF93EC01790147
:1038E00077FD3EC657FD3CC68885998568177907E0
:1038F0000CF036C68A859B85481759070CF030C6F0
:10390000E98DFA8D90818DA189238083888D811125
:1039100092C28D89823059F08330B1F08130D1F478
:103920008FEE90E0841B950BAB01BC0113C08FEEB2
:1039300090E09C01261B370BB9018FE391E09C01BD
:10394000241B350BA90106C08FE391E0861B970B62
:10395000BA01AC01EB8DFC8D90818EA1892380830F
:103960008091020187788093020180910201809307
:1039700002018EB1877C8EB98EB18EB9A59884B3C1
:1039800084BBED8DFE8D90818FA189238083ED8D89
:10399000FE8D90818BA1892B808380910201877895
:1039A0008093020180910201809302018EB1877C95
:1039B0008EB9739AA59884B384BBED8DFE8D9081EA
:1039C0008FA189238083ED8DFE8D90818BA1892B22
:1039D0008083872F992787FD9A95EB8DFC8D308109
:1039E0002AA1232B20832091020127782093020112
:1039F000E09102019C01207C3327D901F3E0B595C9
:103A0000A795FA95E1F79C0123703327B5E0220FC3
:103A1000331FBA95E1F72A2B2E2B209302012EB1EA
:103A2000277C2EB9EEB19C012C703327D901AA0F47
:103A3000BB1FAA0FBB1F9C0120723327359527950A
:103A4000359527952A2B2E2B2EB9A59824B3807156
:103A50009927880F991F822B84BBED8DFE8D908155
:103A60008FA189238083ED8DFE8D90818BA1892B81
:103A70008083809102018778809302012091020166
:103A8000CB01807C9927FC01A3E0F595E795AA95E9
:103A9000E1F7CB0183709927B5E0880F991FBA959C
:103AA000E1F78E2B822B809302018EB1877C8EB939
:103AB0002EB1CB018C709927FC01EE0FFF1FEE0F8A
:103AC000FF1FCB01807299279595879595958795CE
:103AD0008E2B822B8EB9A59884B360717727660FE1
:103AE000771F682B64BBED8DFE8D90818FA189239C
:103AF0008083ED8DFE8D90818BA1892B8083EB8D52
:103B0000FC8D90818EA1892380838091020187782A
:103B10008093020180910201809302018EB1877C23
:103B20008EB98EB18EB9A59884B384BBED8DFE8D10
:103B300090818FA189238083ED8DFE8D90818BA153
:103B4000892B808380910201877880930201809184
:103B500002018062809302018EB1877C8EB9739AD4
:103B6000A59884B384BBED8DFE8D90818FA18923B0
:103B70008083ED8DFE8D90818BA1892B8083852F95
:103B8000992787FD9A95EB8DFC8D30812AA1232BF7
:103B90002083209102012778209302016091020185
:103BA0009C01207C3327F90133E0F595E7953A95A0
:103BB000E1F79C012370332775E0220F331F7A95BC
:103BC000E1F72E2B262B209302012EB1277C2EB954
:103BD0006EB19C012C703327F901EE0FFF1FEE0F21
:103BE000FF1F9C0120723327359527953595279522
:103BF0002E2B262B2EB9A59824B380719927880FD8
:103C0000991F822B84BBED8DFE8D90818FA189231E
:103C10008083ED8DFE8D90818BA1892B8083809197
:103C2000020187788093020120910201CA01807C01
:103C30009927BC0103E0759567950A95E1F7CA01DC
:103C40008370992735E0880F991F3A95E1F7862B05
:103C5000822B809302018EB1877C8EB92EB1CA016E
:103C60008C709927BC01660F771F660F771FCA01FA
:103C7000807299279595879595958795862B822BA8
:103C80008EB9A59884B340715527440F551F482B12
:103C900044BBED8DFE8D90818FA189238083ED8DB6
:103CA000FE8D90818BA1892B8083EB8DFC8D908183
:103CB0008EA18923808380910201877880930201FD
:103CC00080910201809302018EB1877C8EB98EB102
:103CD0008EB9A59884B384BBED8DFE8D90818FA1A4
:103CE00089238083ED8DFE8D90818BA1892B80832C
:103CF00080910201877880930201809102018064A3
:103D0000809302018EB1877C8EB9739AA59884B393
:103D100084BBED8DFE8D90818FA189238083ED8DF5
:103D2000FE8D90818BA1892B8083EB8DFC8D908102
:103D30008AA1892B80838091020187788093020178
:103D4000409102018F2D99279C01207C3327B901D6
:103D500013E0759567951A95E1F79C012370332759
:103D600005E0220F331F0A95E1F7262B242B209321
:103D700002012EB1277C2EB94EB19C012C70332745
:103D8000B901660F771F660F771F9C0120723327DA
:103D90003595279535952795262B242B2EB9A59853
:103DA00024B380719927880F991F822B84BBED8DD6
:103DB000FE8D90818FA189238083ED8DFE8D908172
:103DC0008BA1892B808380910201877880930201E7
:103DD00020910201C701807C9927AC0173E05595C1
:103DE00047957A95E1F7C70183709927E5E0880F39
:103DF000991FEA95E1F7842B822B809302018EB103
:103E0000877C8EB92EB1C7018C709927AC01440F05
:103E1000551F440F551FC7018072992795958795A7
:103E200095958795842B822B8EB9A59884B330E124
:103E3000E322FF24CFC2813009F0CFC2ED89E150E7
:103E4000E33028F4F0E0EA5FFD4F808101C080E0BC
:103E5000EB8DFC8D20819EA1922390839091020195
:103E600097789093020190910201906490930201DF
:103E70009EB1977C9EB9749AA598A59AED8DFE8DFA
:103E800020819FA192239083ED8DFE8D20819BA1A7
:103E9000922B9083EB8DFC8D20819AA1922B9083A5
:103EA0009091020197789093020120910201982F3E
:103EB000907C969596959695922B909302019EB143
:103EC000977C9EB92EB1982F9072892F90E095958E
:103ED000879595958795822B8EB9A59884B384BBD9
:103EE000ED8DFE8D90818FA189238083ED8DFE8DD8
:103EF00090818BA1892B8083872F992787FD9A95A5
:103F0000EB8DFC8D30812EA1232320832091020193
:103F1000277820930201209102012064209302015E
:103F20002EB1277C2EB92EB12EB9A59824B324BB6F
:103F3000ED8DFE8D30812FA123232083ED8DFE8D0D
:103F400030812BA1232B2083EB8DFC8D30812AA186
:103F5000232B208320910201277820930201E091F6
:103F600002019C01207C3327D90113E0B595A79568
:103F70001A95E1F79C012370332705E0220F331FC8
:103F80000A95E1F72A2B2E2B209302012EB1277CD4
:103F90002EB9EEB19C012C703327D901AA0FBB1F9B
:103FA000AA0FBB1F9C0120723327359527953595A5
:103FB00027952A2B2E2B2EB9A59824B380719927EB
:103FC000880F991F822B84BBED8DFE8D90818FA170
:103FD00089238083ED8DFE8D90818BA1892B808339
:103FE000EB8DFC8D90818EA18923808380910201CD
:103FF000877880930201809102018066809302019C
:104000008EB1877C8EB98EB18EB9A59884B384BBEE
:10401000ED8DFE8D90818FA189238083ED8DFE8DA6
:1040200090818BA1892B8083EB8DFC8D90818AA15F
:10403000892B8083809102018778809302012091EF
:104040000201CB01807C9927FC01B3E0F595E7954F
:10405000BA95E1F7CB018370992715E0880F991F76
:104060001A95E1F78E2B822B809302018EB1877C0B
:104070008EB92EB1CB018C709927FC01EE0FFF1F7A
:10408000EE0FFF1FCB018072992795958795959527
:1040900087958E2B822B8EB9A59884B36071772774
:1040A000660F771F682B64BBED8DFE8D90818FA10D
:1040B00089238083ED8DFE8D90818BA1892B808358
:1040C000852F992787FD9A95EB8DFC8D30812EA148
:1040D000232320832091020127782093020120913D
:1040E00002012064209302012EB1277C2EB9749A1C
:1040F000A59824B324BBED8DFE8D30812FA1232301
:104100002083ED8DFE8D30812BA1232B2083EB8D21
:10411000FC8D30812AA1232B208320910201277856
:1041200020930201609102019C01207C3327F90158
:10413000A3E0F595E795AA95E1F79C012370332755
:10414000B5E0220F331FBA95E1F72E2B262B2093D3
:1041500002012EB1277C2EB96EB19C012C70332741
:10416000F901EE0FFF1FEE0FFF1F9C012072332796
:1041700035952795359527952E2B262B2EB9A59865
:1041800024B380719927880F991F822B84BBED8DF2
:10419000FE8D90818FA189238083ED8DFE8D90818E
:1041A0008BA1892B8083EB8DFC8D90818EA189233F
:1041B00080838091020187788093020180910201BF
:1041C0008066809302018EB1877C8EB9749AA5981F
:1041D00084B384BBED8DFE8D90818FA18923808374
:1041E000ED8DFE8D90818BA1892B8083EB8DFC8DD5
:1041F00090818AA1892B80838091020187788093A6
:10420000020120910201CA01807C9927BC01E3E0F0
:1042100075956795EA95E1F7CA0183709927F5E0EE
:10422000880F991FFA95E1F7862B822B8093020164
:104230008EB1877C8EB92EB1CA018C709927BC01D2
:10424000660F771F660F771FCA01807299279595B1
:10425000879595958795862B822B8EB9A59884B3E3
:1042600040715527440F551F482B44BBED8DFE8DE3
:1042700090818FA189238083ED8DFE8D90818BA10C
:10428000892B8083EB8DFC8D90818EA18923808387
:1042900080910201877880930201809102018064FD
:1042A000809302018EB1877C8EB9739AA59884B3EE
:1042B00084BBED8DFE8D90818FA189238083ED8D50
:1042C000FE8D90818BA1892B8083EB8DFC8D90815D
:1042D0008AA1892B808380910201877880930201D3
:1042E000409102018F2D99279C01207C3327B90131
:1042F00023E0759567952A95E1F79C012370332794
:1043000055E0220F331F5A95E1F7262B242B2093DB
:1043100002012EB1277C2EB94EB19C012C7033279F
:10432000B901660F771F660F771F9C012072332734
:104330003595279535952795262B242B2EB9A598AD
:1043400024B380719927880F991F822B84BBED8D30
:10435000FE8D90818FA189238083ED8DFE8D9081CC
:104360008BA1892B80838091020187788093020141
:1043700020910201C701807C9927AC01B3E05595DB
:104380004795BA95E1F7C7018370992715E0880F23
:10439000991F1A95E1F7842B822B809302018EB12D
:1043A000877C8EB92EB1C7018C709927AC01440F60
:1043B000551F440F551FC701807299279595879502
:1043C00095958795842B822B8EB9A59884B390E11F
:1043D000E922FF24EE0CFF1CAFC08250823008F0AF
:1043E000B9C00A851B8501501109288539852150DE
:1043F0003109CE010E94C405E98DFA8D90818DA10D
:1044000089238083EB8DFC8D90818EA1892380830D
:10441000809102018778809302018091020180934C
:1044200002018EB1877C8EB98EB188638EB9A59852
:1044300084B384BBED8DFE8D90818FA18923808311
:10444000ED8DFE8D90818BA1892B8083EB8DFC8D72
:1044500090818AA1892B8083809102018778809343
:104460000201409102018F2D99279C01207C332766
:1044700053E0369527955A95E1F7382F33703295EA
:10448000330F307E232B242B209302012EB1277C67
:104490002EB94EB1282F2C70522F550F550F9C015D
:1044A000207233273695279536952795252B242B73
:1044B0002EB9A59894B38071880F892B84BBED8D9C
:1044C000FE8D90818FA189238083ED8DFE8D90815B
:1044D0008BA1892B808380910201877880930201D0
:1044E00020910201C701807C992773E096958795FA
:1044F0007A95E1F79E2D93709295990F907E892B76
:10450000822B809302018EB1877C8EB92EB18E2DC5
:104510008C70382F330F330FC7018072992796950F
:10452000879596958795832B822B8EB9A59884B312
:104530009E2D9071E92EEE0CE82AE4BAED8DFE8DE9
:1045400090818FA189238083ED8DFE8D90818BA139
:10455000892B8083E98DFA8D908189A1892B8083B5
:10456000DF91CF911F910F91FF90EF9008950895E3
:104570002F923F924F925F926F927F928F929F9273
:10458000AF92BF92CF92DF92EF92FF920F931F9361
:10459000CF93DF93CDB7DEB72D970FB6F894DEBF7C
:1045A0000FBECDBF9D878C876A30A1F4DC01549685
:1045B0002C9154971E968D919C911F97B8E02B9F3C
:1045C000800D911D1124EC85FD85978786871586C2
:1045D0001486F8C06D3009F4F5C0AC85BD851C9615
:1045E000CD90DC901D9718968D919C911997C816C7
:1045F000D906BCF0EC85FD854489242F30E0848504
:104600009585F6E04F9F800D911D1124AC85BD85E9
:104610001D969C938E931C9756964C914111AEC05B
:10462000D1C0EC85FD858684978482859385881624
:10463000990604F7F489F983AF2EB12CC60126E060
:10464000F29F800D911D1124181619069CF6C501C4
:1046500023E0880F991F2A95E1F7880D991D1816F8
:10466000190644F6AC85BD8557968C91811103C01F
:10467000603B08F06F5FEC85FD850288F389E02DD3
:10468000FD83EC83AC85BD8550960D90BC91A02D2B
:10469000BF83AE83B5E06B9FB001112416011A826F
:1046A000FB01EC19FD09F987E8879401285F3F4F6A
:1046B0003B872A873A81353049F0E885F985E20D54
:1046C000F31DEE5FFA4F54915B8301C01B822401FE
:1046D00034018B8180FF13C0AC85BD85ED91FC91C9
:1046E000B981B13031F40084F185E02D2E813F8114
:1046F00019C00288F389E02DEE80FF801EC0EC8196
:10470000FD812E813F81E217F307F1F0AC85BD8575
:10471000ED91FC91B981B13059F40084F185E02D1F
:104720002C813D81A301B1018C859D8519950CC01B
:104730000288F389E02DEC80FD8085019501A201BE
:10474000B6018C859D851995EB81E695EB83FFEF8E
:104750006F1A7F0A4A0C5B1C2A853B852615370594
:1047600009F0B7CF3A813F5F3A835FEF251A350AE8
:10477000CA0CDB1C363009F09DCF3CCF4AEF420318
:10478000B001439F700D1124AC85BD8518964D91E5
:104790005C911997460F571F481759079CF483E0FF
:1047A000220F331F8A95E1F71E968D919C911F97DA
:1047B000280F391F1F963C932E931E971D961C920F
:1047C0001E921C9781E090E02D960FB6F894DEBF04
:1047D0000FBECDBFDF91CF911F910F91FF90EF9052
:1047E000DF90CF90BF90AF909F908F907F906F9011
:1047F0005F904F903F902F900895EF92FF920F930C
:104800001F93DC011A960D911C911B9718962D9100
:104810003C911997ED91FC910288F389E02D7B0181
:1048200040E050E060E070E019951F910F91FF901B
:10483000EF9008956F927F928F929F92AF92BF9266
:10484000CF92DF92EF92FF920F931F93CF93DF935C
:104850006C015A014801EB013B01620E731EC61543
:10486000D70574F4D601ED91FC910484F585E02D13
:1048700087019401A501BE01C60119952196EFCFCC
:10488000DF91CF911F910F91FF90EF90DF90CF902C
:10489000BF90AF909F908F907F906F900895EF9210
:1048A000FF920F931F93260F371F21503109DC0110
:1048B000ED91FC910284F385E02D78018A01199530
:1048C0001F910F91FF90EF900895EF92FF920F9339
:1048D0001F93240F351F21503109DC01ED91FC910C
:1048E0000284F385E02D780189019B0119951F91C0
:1048F0000F91FF90EF9008956F927F928F929F9209
:10490000AF92BF92CF92DF92EF92FF920F931F93DD
:10491000CF93DF93EC014B015A0169013801E88123
:10492000F9810684F785E02D87011995A501460DCB
:10493000571D41505109E881F9810684F785E02D22
:104940009601B401CE011995E881F9810484F585B9
:10495000E02D9301A501B401CE011995C80CD91C15
:10496000B60161507109E881F9810484F585E02D73
:104970009301A501CE011995DF91CF911F910F9160
:10498000FF90EF90DF90CF90BF90AF909F908F906F
:104990007F906F9008952F923F924F925F926F9207
:1049A0007F928F929F92AF92BF92CF92DF92EF92BF
:1049B000FF920F931F93CF93DF9300D000D0CDB71A
:1049C000DEB72C017E836D836A015901C801FC8228
:1049D000EB824801841A950A97FE03C09194819452
:1049E000910835012D813E81621A730A77FE03C05A
:1049F000719461947108681479045CF43A2D2B2D3C
:104A00005C01832F922F3D812E81DE82CD82C32EC9
:104A1000D22EAD81BE81AA16BB065CF43C2D2D2D95
:104A20006C01832F922F3D812E81BE82AD82A32EF9
:104A3000B22E85012D813E81021B130B1C012C1807
:104A40003D0837FE03C0319421943108780117FFE7
:104A500003C03FEFE31AF30AF594E794C816D906AA
:104A60002CF08FEF9FEF9A83898304C0A1E0B0E020
:104A7000BA83A9832D813E81A216B30624F1D20107
:104A8000ED91FC910084F185E02D2B813C8168142F
:104A9000790424F44D815E81B60103C0A6016D81C5
:104AA0007E81C2011995E218F308F7FE06C029813C
:104AB0003A81C20ED31EE00EF11E8D819E810196B9
:104AC0009E838D83D7CF26960FB6F894DEBF0FBE98
:104AD000CDBFDF91CF911F910F91FF90EF90DF90AD
:104AE000CF90BF90AF909F908F907F906F905F908E
:104AF0004F903F902F900895089580E090E00895A2
:104B00002CE233E0FC013183208380912C039091CF
:104B10002D0301978230910510F488EC90E090937A
:104B20002D0380932C03089561E086E10E94CE312D
:104B300060E086E10C94CE31FC01238D211102C08E
:104B4000848D089580E00895FC01838D882319F0F9
:104B5000948D81E089270895DC0112968D919C91B6
:104B600013971696ED91FC9117979F01369527950F
:104B7000FC01E21BF30B6E177F07D8F0280F391FDB
:104B800026173707B0F014962D913C91159718967B
:104B90008D919C911997B901681B790B461757079E
:104BA00040F096958795280F391F81E02417350727
:104BB00008F480E008952F923F924F925F926F9297
:104BC0007F928F929F92AF92BF92CF92DF92EF929D
:104BD000FF920F931F93CF93DF93CDB7DEB72C9740
:104BE0000FB6F894DEBF0FBECDBF9C878B87DC016C
:104BF0001D969C911D971E968C911E971B96ED916C
:104C0000FC911C97FA83E9831F963C911F9750965D
:104C10002C91611105C0692E782E39872A8704C02E
:104C2000632E722E99878A87AB85BC8516962D9048
:104C30003C9017971896CD90DC9019972C143D0452
:104C400010F4410101C0460196948794969487948C
:104C5000C60196958795EB85FC8544805580481A5A
:104C6000590AC10196958795628173819B01281B22
:104C7000390B3E832D83808191819C838B835401EA
:104C8000AA0CBB1C280D391D38872F8391012A19C6
:104C90003B09DC01ED91FC910288F389E02D730161
:104CA0008601A2016F8178851995CA18DB08560123
:104CB000B1E0AB1AB108480C591C6D817E81620DC0
:104CC000731D68197909615071096301750101E06B
:104CD0009401A2018B819C810E94AC1502E0940199
:104CE000A2016F8178858B819C810E94AC15EB8538
:104CF000FC85E680F78020843184E214F30410F40C
:104D0000470101C041019694879496948794C1010C
:104D100096958795AB85BC8514966D907C9015977C
:104D2000681A790AC701969587951296AD90BC903E
:104D30001397A81AB90ACD90DC90F401EE0FFF1F6B
:104D4000FC83EB8397012E1B3F0B3E832D832401B5
:104D50004A0C5B1CD601ED91FC910684F785E02D91
:104D600009811A81A301B201C6011995F101E60D6D
:104D7000F71DF887EF83AF0141505109D601ED913E
:104D8000FC910684F785E02D09811A812D813E81F1
:104D9000B201C6011995EB81FC812E1A3F0A680CFD
:104DA000791CD601ED91FC910484F585E02D0981F3
:104DB0001A819101A301B501C6011995AE0CBF1C62
:104DC000B50161507109D601ED91FC910484F5851E
:104DD000E02D09811A819101A301C6011995E9808D
:104DE000FA8001E09401A301B201C6010E94573389
:104DF000A818B908B1E0AB1AB108E980FA8002E05E
:104E00009401A301B501C6010E9457336F807884D5
:104E100068187908E1E06E1A7108E980FA8004E008
:104E20009401A301B501C6010E945733E980FA80BD
:104E300008E09401A301B201C6010E945733AB857B
:104E4000BC851A962C911A9714964D915C911597E2
:104E5000B4E02B9F4019510911246B857C856F5E4E
:104E60007F4FFB0101900020E9F73197CF01861BAE
:104E7000970BAB85BC85ED91FC91B3E02B9F900126
:104E80001124289F7001299FF00C389FF00C1124E9
:104E9000AB85BC8512968D919C9113978E199F09B5
:104EA0009587848757874687B985B28B2A85238B58
:104EB000B08B218BAB85BC851A968C91811101C07A
:104EC00081E0848BEB85FC85808191812C960FB6E7
:104ED000F894DEBF0FBECDBFDF91CF911F910F9130
:104EE000FF90EF90DF90CF90BF90AF909F908F900A
:104EF0007F906F905F904F903F902F900C940C3666
:104F0000FC0182A193A1049693A382A39F01205E3A
:104F10003F4F8217930711F4F3A3E2A3A2A1B3A119
:104F20004D935D936D937C93139784A1883059F4CE
:104F300080A191A1049691A380A32817390759F461
:104F4000F1A3E0A308C091E0980F94A3811105C0DC
:104F5000B1A3A0A302C080E0089581E008952F923C
:104F60003F924F925F926F927F928F929F92AF92F9
:104F7000BF92CF92DF92EF92FF920F931F93CF9346
:104F8000DF93CDB7DEB72C970FB6F894DEBF0FBE18
:104F9000CDBF9C878B8784EB97E0EB85FC85918365
:104FA00080838AE697E09383828385E497E0958304
:104FB00084838FE897E09783868380E297E09387E6
:104FC000828782E894E00E948E348635910509F04C
:104FD0001AC200EC13E02FB7F8948091DC03909193
:104FE000DD03A091DE03B091DF032FBF80938A041D
:104FF00090938B04A0938C04B0938D0482E894E08A
:105000000E948E3497FF09C22FB7F8948091DC0379
:105010009091DD03A091DE03B091DF032FBF40919B
:105020008A0450918B0460918C0470918D04841BD0
:10503000950BA60BB70B40918604509187046091A5
:1050400088047091890484179507A607B707B0F202
:105050006091C0038FE195E00E9496356091C10395
:105060008FE195E00E9496356091C2038FE195E053
:105070000E9496356091C3038FE195E00E949635BA
:105080006091C4038FE195E00E9496356091C5035D
:105090008FE195E00E9496356091C6038FE195E01F
:1050A0000E9496356091C7038FE195E00E94963586
:1050B0006091C8038FE195E00E9496356091C90325
:1050C0008FE195E00E9496356091CA038FE195E0EB
:1050D0000E9496356091CB038FE195E00E94963552
:1050E0006091CC038FE195E00E9496356091CD03ED
:1050F0008FE195E00E9496356091CE038FE195E0B7
:105100000E9496356091CF038FE195E00E9496351D
:105110006091D0038FE195E00E9496356091D103B4
:105120008FE195E00E9496356091D2038FE195E082
:105130000E9496356091D3038FE195E00E949635E9
:1051400066E472E08FE195E00E949D358091C00396
:10515000843509F058C14091C103042E000C550B51
:10516000405351094A30510508F04DC12091C20306
:10517000022E000C330B205331092A30310508F080
:1051800042C18091C303082E000C990BC0978A304E
:10519000910508F038C16091C403633509F033C14B
:1051A000A090C5030A2C000CBB08F0E3AF1AB108AD
:1051B0006AE0A616B10408F026C1C090C6030C2C04
:1051C000000CDD0870E3C71AD108EAE0CE16D1045E
:1051D00008F019C1E090C7030E2C000CFF08F0E3A3
:1051E000EF1AF1086AE0E616F10408F00CC16091CC
:1051F000C803643409F007C16090C903062C000C91
:10520000770870E3671A7108EAE06E16710408F017
:10521000FAC04090CA03042C000C5508F0E34F1A62
:1052200051086AE04616510408F0EDC02090CB0307
:10523000022C000C330870E3271A3108EAE02E161E
:10524000310408F0E0C06091CC03603509F0DBC0A8
:105250006091CD03062E000C770BFB01F097FA83CB
:10526000E9833A9708F0CFC06091CE03062E000C78
:10527000770BFB01F097FC83EB833A9708F0C3C0F0
:105280006091CF03062E000C770BFB01F097FE8395
:10529000ED833A9708F0B7C06091D003623509F00A
:1052A000B2C06091D103062E000C770BFB01F09782
:1052B000F887EF833A9708F0A6C06091D203062ED4
:1052C000000C770BFB01F097FA87E9873A9708F013
:1052D0009AC00091D303002E000C110B005311094A
:1052E0000A30110508F08FC064E6862E849EB00156
:1052F000859E700D1124EAE09E2E929EA001939E41
:10530000500D1124640F751F680F791F80E090E025
:105310000E949550AB01BC01EB85FC858081918199
:10532000EFDD8A9CC0018B9C900D11249C9CB001E8
:105330009D9C700D1124680F791F6E0D7F1D80E0FC
:1053400090E00E949550AB01BC01EB85FC85828109
:105350009381D6DD869CC001879C900D1124949C7E
:10536000B001959C700D1124680F791F620D731D9B
:1053700080E090E00E949550AB01BC01EB85FC857C
:1053800084819581BDDD29813A81829EB001839E11
:10539000700D1124EB81FC819E9EC0019F9E900D9B
:1053A0001124680F791F2D813E81620F731F80E0E9
:1053B00090E00E949550AB01BC01EB85FC85868195
:1053C00097819EDD2F813885829EB001839E700D6E
:1053D0001124E985FA859E9EC0019F9E900D11249F
:1053E000680F791F600F711F80E090E00E94955058
:1053F000AB01BC01EB85FC858285938581DD81E075
:105400008093740302C0109274038091170381117A
:105410000DC0BDD6019751F410C0F80181938F01E2
:10542000F3E0043D1F0709F0D6CD12CE809117039B
:105430008823B9F1ACD60197A1F581E080931603DA
:1054400080911703811110C080911603882361F0A9
:1054500068E073E085EE93E00E940C3660EC73E048
:1054600085EE93E00E94FA3580911603809317032E
:105470002C960FB6F894DEBF0FBECDBFDF91CF9153
:105480001F910F91FF90EF90DF90CF90BF90AF9062
:105490009F908F907F906F905F904F903F902F9054
:1054A000089510921603CCCFCF92DF92EF92FF9225
:1054B0000F931F93CF93DF93EC018BEF96E09983CB
:1054C000888381EB96E09B838A838CE896E09D83BA
:1054D0008C8386ED96E09F838E8387E696E099879E
:1054E00088878CE293E09B878A87E0911D07F09183
:1054F0001E07C080D180E280F3802DEC3CEC4EE1B1
:1055000052E4C701B6010E949150181654F023E3EB
:1055100033E349E052E4C701B6010E94985287FF85
:1055200019C020E030E04EE252E4C701B6010E940B
:105530009852009120031091210387FF37C02AE978
:1055400039E945EF51E4C701B6010E9491501816A0
:105550006CF50CC010922B0310922A038091040268
:1055600090910502892B89F561E01CC081E090E0F3
:1055700090932B0380932A030F5F1F4F10932103F7
:10558000009320030630110504F182E090E090932F
:105590002B0380932A038091040290910502892BAA
:1055A000A1F460E08AE698E006DB0FC082E090E0BC
:1055B00090932B0380932A030F5F1F4F10932103B7
:1055C000009320030630110534F7EA81FB8102A025
:1055D000F3A1E02DC080D180E280F38020E030E0B4
:1055E00044EE52E4C701B6010E94985287FD17C0ED
:1055F00020E030E848E053E4C701B6010E94915032
:1056000018166CF01092290310922803809104025E
:1056100090910502892B09F049C061E034C020E077
:1056200030E04CE153E4C701B6010E94985200916A
:105630001E0310911F0387FF2AC020E030E040ECDA
:1056400052E4C701B6010E949150181604F581E09A
:1056500090E090932903809328030F5F1F4F1093CE
:105660001F0300931E030630110504F182E090E051
:10567000909329038093280380910402909105025E
:10568000892BA1F460E08DE498E095DA0FC082E008
:1056900090E090932903809328030F5F1F4F10938E
:1056A0001F0300931E030630110534F7EC81FD81C2
:1056B00002A0F3A1E02DC080D180E280F38020E041
:1056C00030E048EA52E4C701B6010E949150181632
:1056D000B4F020E030E045E852E4C701B6010E9492
:1056E000985287FD0CC010922703109226038091D8
:1056F000040290910502892B19F561E01EC081E03A
:1057000090E0909327038093260380911C0390914F
:105710001D03019690931D0380931C03069784F04C
:1057200082E090E090932703809326038091040207
:1057300090910502892B21F460E080E398E03BDA48
:10574000EE81FF8102A0F3A1E02DC080D180E28034
:10575000F38020E030E044E652E4C701B6010E9445
:10576000985287FD0AC020E030E042ED52E4C701C4
:10577000B6010E9491501816CCF420E030E046EEBD
:1057800052E4C701B6010E94985200911A03109189
:105790001B0387FF37C020E030E04CE452E4C70130
:1057A000B6010E94915018166CF50CC0109225039A
:1057B000109224038091040290910502892B89F5AF
:1057C00061E01CC081E090E0909325038093240366
:1057D0000F5F1F4F10931B0300931A030630110530
:1057E00004F182E090E0909325038093240380915C
:1057F000040290910502892BA1F460E083E198E016
:10580000DAD90FC082E090E09093250380932403BF
:105810000F5F1F4F10931B0300931A0306301105EF
:1058200034F7E885F98502A0F3A1E02DC080D1808E
:10583000E280F38020E030E042ED51E4C701B601A0
:105840000E9491501816BCF026E636E646E351E475
:10585000C701B6010E94985287FD0DC01092D50372
:105860001092D4038091040290910502892B09F0D3
:1058700049C061E034C026E636E646EE51E4C70191
:10588000B6010E9498520091DA031091DB0387FF62
:105890002AC023E333E343E251E4C701B6010E9487
:1058A0009150181604F581E090E09093D503809311
:1058B000D4030F5F1F4F1093DB030093DA0306300E
:1058C000110504F182E090E09093D5038093D40316
:1058D0008091040290910502892BA1F460E089ED8A
:1058E00097E069D90FC082E090E09093D503809350
:1058F000D4030F5F1F4F1093DB030093DA030630CE
:10590000110534F7EA85FB8580819181889760F0E5
:1059100010922303109222038091040290910502B9
:10592000892B59F561E01EC081E090E0909323033C
:10593000809322038091180390911903019690930C
:105940001903809318030697C4F082E090E09093C7
:105950002303809322038091040290910502892BF6
:1059600061F460E086EF97E0DF91CF911F910F9196
:10597000FF90EF90DF90CF901EC9DF91CF911F91E4
:105980000F91FF90EF90DF90CF9008957F928F92CC
:105990009F92AF92BF92CF92DF92EF92FF920F93BE
:1059A0001F93CF93DF9328ED33E0FC0131832083F5
:1059B00026ED33E03383228361E08DE0EFD4609104
:1059C000ED0570E0FB01E452F54FE4908091EA05AB
:1059D000A82FB0E0FD01E452F54FC4914091EC05D1
:1059E00050E0FA01E452F54F84902091EB0530E04D
:1059F000F901E452F54FC490FB01E458F54F1491BE
:105A0000FD01E458F54F0491FA01E458F54F9490E4
:105A1000F901E458F54FB49060E0EED460E0809175
:105A2000EB05EAD4D0E0CC0FDD1FCE53D54FFE01FD
:105A3000A591B4918C91A02EA0948A218C93D12C05
:105A4000F601EE0FFF1FCF018E53954F6C01FC0145
:105A5000A591B4918C919B2D909589238C9361E0B5
:105A60008091ED05C9D461E08091EC05C5D4F12C9D
:105A7000F701EE0FFF1FCF018E53954F7C01FC0104
:105A8000A591B4918C91812B8C93E82DF0E0EE0FD1
:105A9000FF1FEE53F54FA591B4918C9190949822ED
:105AA0009C928091EA05E4D48091EA05E1D44C010E
:105AB00060E08091ED05A0D460E08091EC059CD47D
:105AC000F701A591B4918C91712E709487218C93DC
:105AD00061E08091EA0590D4FE01A591B491EC912A
